:020000040800F2
:100000008005002001010008FF110008BB11000855
:10001000FD1100081B020008291B00080000000059
:10002000000000000000000000000000951800081B
:100030001D02000800000000DD17000897180008E6
:100040001B0100081B0100081B0100081B01000820
:100050001B0100081B0100081B0100081B01000810
:100060001B0100081B0100081B0100081B01000800
:100070001B0100081B0100081B0100081B010008F0
:100080001B0100081B0100081B0100081B010008E0
:100090001B0100081B0100081B0100081B010008D0
:1000A0001B0100081B0100081B0100081B010008C0
:1000B0001B0100081B0100081B0100081B010008B0
:1000C0001B0100081B0100081B0100081B010008A0
:1000D0001B0100081B0100081B0100081B01000890
:1000E0001B0100081B0100081B010008DFF80CD0F1
:1000F00000F072F800480047E11F0008800500206A
:100100000648804706480047FEE7FEE7FEE7FEE7B1
:10011000FEE7FEE7FEE7FEE7FEE7FEE70D19000853
:10012000ED000008202A04DB203A21FA02F0002129
:10013000704721FA02F3D040C2F1200291400843F7
:100140001946704740EA01039B0703D009E008C93C
:10015000121F08C0042AFAD203E011F8013B00F88C
:10016000013B521EF9D27047421C10F8011B0029B6
:10017000FBD1801A70472DE9F05F054600209246BA
:100180009B4688460646814640241BE02846414659
:1001900047462246FFF7C6FF53465A46C01A9141CA
:1001A00010D311461846224600F028F82D1A67EBA6
:1001B00001084F4622460120002100F01FF817EBEE
:1001C00000094E41201EA4F10104DFDC48463146FF
:1001D0002A464346BDE8F09F064C074D06E0E0681E
:1001E00040F0010394E8070098471034AC42F6D37E
:1001F000FFF780FF602A0008802A0008202A04DB1D
:10020000203A00FA02F1002070479140C2F1200329
:1002100020FA03F3194390407047FEE7704700004F
:1002200070B5044600F0F2F80546601C02D00448A0
:100230000078044400F0EAF8401BA042FAD370BDF5
:10024000400000202DE9F84FDFF890A100220AF1CC
:10025000040B144601274FF00F090BF1040E00BFE9
:100260000B6807FA04F52B40AB4274D1DFF870C17C
:100270004E68A6EB0C0866452BD00DDC032E34D05F
:1002800005DC36B3012E19D0022E2FD11BE0112E22
:1002900016D0122E2AD119E0B8F5881F19D006DC25
:1002A000B8F5803F15D0B8F5801F1FD111E0B8F523
:1002B000001F0ED0B8F5041F18D10AE0CA6815E077
:1002C000CA68121D12E0CA6808320FE0CA680C3210
:1002D0000CE08A682AB1012A4FF0080203D0456178
:1002E00004E0042202E0056100E00022FF2B01D8B7
:1002F000064601E000F104064FEA840501D9A5F1A4
:100300002005D6F800C009FA05F82CEA080C02FA14
:1003100005F54CEA050CC6F800C04D68ED0057D550
:10032000304DAE6946F00106AE61AD6924F00306BA
:1003300005F0010500952C4D06EB050CDCF8085086
:10034000A6074FEA167809FA08F6B543274EB042D9
:1003500002D1002610E03BE0254EB04201D101263B
:100360000AE0244EB04201D1022605E0224EB042FE
:1003700001D1032600E0042606FA08F62E43CCF845
:1003800008604D68DAF80060ED03554601D51E435C
:1003900000E09E432E604D68DBF80060AD035D46D3
:1003A00001D51E4300E09E432E604D68DEF80060DC
:1003B000ED02754601D51E4300E09E432E604D6858
:1003C000AD020E4D2E6801D51E4300E09E432E6007
:1003D000641C102CFFF444AFBDE8F88F000401400A
:1003E0000000111000100240000001400008014010
:1003F000000C014000100140001401400C040140B9
:100400000AB1016170470904FBE7000001488068F8
:1004100070470000400000200248816802781144C3
:100420008160704740000020074810B5016841F026
:1004300010010160032000F091F8002000F006F8A0
:1004400000F024F8002010BD0020024070B50D4DD2
:1004500004464FF47A712878B1FBF0F00A49096834
:10046000B1FBF0F000F0D7FD48B9102C07D2002204
:100470002146501E00F052F800206C6070BD012033
:1004800070BD0000400000204C000020214808B54D
:10049000816941F001018161816901F001010091EF
:1004A000C16941F08051C161C06900F08050009085
:1004B000032000F053F8002211466FF00B0000F00B
:1004C0002DF8002211466FF00A0000F027F80022F4
:1004D00011466FF0090000F021F800221146501F6C
:1004E00000F01CF800221146101F00F017F800223F
:1004F0001146901E00F012F800221146501E00F026
:100500000DF80548416821F0E06141F0007141605B
:1005100008BD00000010024000000140F0B40E4B86
:100520001B680C46C3F30223C3F10705042D00D951
:100530000425191D072901D2002300E0DB1E012636
:1005400006FA05F1491E214099409E40761E16404C
:100550003143F0BC01F032B90CED00E0064900F087
:10056000070208684FF6FF03184040EA0220034ADA
:1005700010430860704700000CED00E00000FA0531
:100580002DE9F047DFF83C8105460E46D8F800001B
:1005900000F00700B0420CD2D8F8001021F007019B
:1005A0003143C8F80010D8F8000000F00700B0424E
:1005B00063D12878444C800705D56068A96820F08D
:1005C000F000084360602878C00745D068680128BB
:1005D00016D02168022816D0890700294DDA6168F3
:1005E00021F0030101436160FFF710FF69680746CE
:1005F00041F2883001290FD00229814619D027E025
:1006000021688903E9E78901E7E700BFFFF7FEFEFC
:10061000C11B494501D918E081466068C0F38100DB
:100620000128F3D118E000BFFFF7F0FEC11B4945D8
:100630000BD86068C0F381000228F5D10CE000BF40
:10064000FFF7E4FEC11B494502D90320BDE8F0874E
:10065000606810F00C0FF3D1D8F80010404601F09C
:100660000701B1420BD9016821F007013143016054
:10067000006800F00700B04201D00120E6E72878CA
:10068000400705D56068E96820F4E06008436060D1
:100690002878000706D56068296920F4605040EA90
:1006A000C100606000F03CF86168084AC1F30311C2
:1006B000515CC840064908600020FFF7C7FE0020D3
:1006C000C4E7000000200240001002406C2900082E
:1006D0004C00002001480068704700004C000020DA
:1006E0000448054900684968044AC1F30221515C85
:1006F000C84070474C000020001002407C290008D0
:100700000448054900684968044AC1F3C221515CA4
:10071000C84070474C000020001002407C290008AF
:1007200012A185B00FC98DE80F0014A0144A00680B
:1007300004905168134801F00C03042B10D0082BCF
:100740000ED1C1F38343C9031DF803000AD55168D4
:1007500004AAC1F34041515C0A4A5043B0FBF1F096
:1007600005B0704708494843FAE700000203040552
:10077000060708090A0B0C0D0E0F101001020000ED
:100780000010024000127A0000093D002DE9F84FE8
:1007900004460078B94DC00748D06868C0F38100AE
:1007A000012807D06868C0F38100022809D1686871
:1007B000C00306D52868800338D5606800286FD04C
:1007C00034E06068B0F5803F0BD010B1B0F5A02FD9
:1007D00011D0286820F480302860286820F4802018
:1007E00002E0286840F480302860606888B1FFF734
:1007F0000DFE064609E0286840F480202860F0E7F6
:10080000FFF704FE801B642875D828688003F7D59D
:100810000CE0FFF7FBFD064605E000BFFFF7F6FD25
:10082000801B6428F0D828688003F7D42078944E81
:1008300080074FF001094FF000083BD5686810F0C1
:100840000C0F07D06868C0F38100022809D16868DE
:10085000C00306D42868800714D5206901281FD159
:1008600010E02069B0B1C6F80090FFF7CFFD074651
:1008700005E000BFFFF7CAFDC01B0228C4D82868E6
:100880008007F7D52868616920F0F80040EAC100C8
:1008900028600FE0C6F80080FFF7B8FD074606E0C5
:1008A000E9E000BFFFF7B2FDC01B022823D828688B
:1008B0008007F7D4207800072CD57248A169D9B1F8
:1008C000C0F80090FFF7A2FD074604E0FFF79EFD89
:1008D000C01B02280FD8686A8007F7D56A484FF412
:1008E000FA510068B0FBF1F0009000BF0098411E83
:1008F0000091FAD20EE080E0C0F80080FFF786FD9C
:10090000074604E0FFF782FDC01B022875D8686A1D
:100910008007F7D42078400760D5E8690027C00039
:1009200008D4E86940F08050E861E869012700F0E8
:100930008050009055480168C90513D4016883466A
:1009400041F480710160FFF761FD824606E000BF5F
:10095000FFF75CFDA0EB0A0064284ED8DBF800002E
:10096000C005F5D5E06801280AD008B1052813D0E4
:10097000286A20F001002862286A20F0040002E0C2
:10098000286A40F001002862E06841F2883B98B193
:10099000FFF73CFD82460BE0286A40F00400286225
:1009A000EEE700BFFFF732FDA0EB0A0159455AD828
:1009B000286A8007F6D50CE0FFF728FD824605E09F
:1009C000FFF724FDA0EB0A0159454CD8286A80079F
:1009D000F6D41FB1E86920F08050E861E06988B37F
:1009E0006968C1F38101022945D00228C6F86080F8
:1009F00004D0FFF70BFD044638E034E0FFF706FDB6
:100A0000074604E0FFF702FDC01B02282BD8286828
:100A10008001F7D4206AB0F5803F05D16868A168ED
:100A200020F4003008436860D4E90801084369688D
:100A300021F4741108436860C6F86090FFF7E6FC83
:100A4000044606E015E000BFFFF7E0FC001B0228AB
:100A500009D828688001F7D50BE000BFFFF7D6FC66
:100A6000001B022802D90320BDE8F88F2868800106
:100A7000F4D40020F8E70120F6E70000001002405F
:100A800000004242800442424C00002000700040BE
:100A900070B5040005D00025A56294F8510010B18E
:100AA00004E0012070BD204600F034F8022084F8F4
:100AB00051002068016821F040010160D4E9010182
:100AC0000843D4E903121143084361690843218BA9
:100AD00001F400710843E1690843216A0843A16AEF
:100AE000084321680860A069042101EA1040616A96
:100AF0000843216848602168E06A08612068C1698C
:100B000021F40061C1616565012084F85100002075
:100B100070BD000010B50068114986B088421CD134
:100B20001048816941F48051816180690E4C00F464
:100B300080500490A0200090022001900320039098
:100B400069462046FFF77EFB00214020CDE90001E9
:100B5000029169462046FFF775FB06B010BD000004
:100B60000030014000100240000801402DE9F84F1C
:100B7000044640680026984617460D464FF0040983
:100B8000B0F5827F01D1A06890B194F8500001289F
:100B900019D04FF0010B84F850B0FFF737FC0090EC
:100BA00094F851004FF0000A01280ED002267FE091
:100BB00084F8519013460A462046CDF8008000F094
:100BC00031F9BDE8F88F0220FBE7002D6FD0002F30
:100BD0006DD084F85190C4F854A0A563A787E78727
:100BE000C4F830A0A4F834A0A4F836A0C4F840A0FB
:100BF000C4F844A0A0684FF40047B84204D120686C
:100C0000016821F48041016020680168490603D42D
:100C1000016841F040010160E068B8B133E020684C
:100C20008168C90706D0007B05F8010BE08F401EE4
:100C3000E0870BE0B8F1000F23D0B8F1FF3F05D0FB
:100C4000FFF7E4FB0099411A41451AD2E08F0028D2
:100C5000E5D11BE020688168C90706D0C06825F887
:100C6000020BE08F401EE0870DE0B8F1000F08D0C6
:100C7000B8F1FF3F07D0FFF7C9FB0099411A414582
:100C800001D3032614E0E08F0028E3D16068B0F5BB
:100C9000827F0AD1A068B84202D0B0F5806F04D13B
:100CA0002068016821F040010160606D00B10126FB
:100CB00084F851B084F850A0304682E72DE9F84F0F
:100CC000044690F850000026994617460D46012824
:100CD0000DD04FF0010B84F850B0FFF797FB804622
:100CE00094F85100B246012804D0022694E0022074
:100CF000BDE8F88F002D7BD0002F79D0032084F839
:100D00005100C4F854A02563A786E786C4F838A02C
:100D1000A4F83CA0A4F83EA0C4F844A0C4F840A0A5
:100D2000A068B0F5004F04D12068016841F480410B
:100D3000016020680168490603D4016841F0400160
:100D40000160E068B0F5006F606804D030B3E08EF9
:100D5000012823D03EE010B1E08E01281AD135F8E9
:100D6000021B206805E020688168890706D535F8F0
:100D7000021BC160E08E401EE0860BE0B9F1000F5F
:100D800034D0B9F1FF3F05D0FFF740FBA0EB0801DD
:100D900049452BD2E08E0028E5D11EE0216815F8E8
:100DA000010B087306E020688168890706D515F8ED
:100DB000011B0173E08E401EE0860BE0B9F1000FCD
:100DC00014D0B9F1FF3F05D0FFF720FBA0EB0801DD
:100DD00049450BD2E08E0028E5D14B460122022185
:100DE0002046CDF8008000F00AFD10B1032613E084
:100DF00011E042464946204600F0F1FC18B10126B8
:100E00002020606508E0A06818B92068C168806883
:100E10000090606D00B1012684F851B084F850A0B4
:100E2000304665E72DE9F84F044690F8500000265B
:100E30000A9F9A4693460D464FF0010801280ED0AE
:100E4000012084F85000FFF7E1FA814694F8510040
:100E5000616801280CD0B1F5827F07D102E0022041
:100E6000BDE8F88FA16809B9042801D00226BDE0C9
:100E700055B1BBF1000F07D0BAF1000F04D094F8C0
:100E80005100012802D004E00126AFE0052084F8DB
:100E9000510000206065C4F838B0A4F83EA0A4F862
:100EA0003CA02563A4F836A0A4F834A020646064B4
:100EB00020680168490603D4016841F040010160DF
:100EC000E068B0F5006F606804D0E8B3E08E0128F8
:100ED0003BD06AE010B1E08E01282ED1216835F8B0
:100EE000020BC860E08E401EE08626E0B8F1000FDD
:100EF0000DD0E08E58B120688168890707D535F894
:100F0000021BC160E08E401EE0864FF00008E08FBB
:100F100058B120688168C90707D0C0682BF8020B58
:100F2000E08F401EE0874FF00108781C05D0FFF7E6
:100F30006DFAA0EB0900B84246D2E08E0028D5D168
:100F4000E08F0028D2D136E0FFE7216815F8010BC9
:100F50000873E08E401EE08627E000BFB8F1000F66
:100F60000DD0E08E58B120688168890707D515F843
:100F7000011B0173E08E401EE0864FF00008E08FF9
:100F800058B120688168C90707D0C0680BF8010B09
:100F9000E08F401EE0874FF00108781C05D0FFF776
:100FA00035FAA0EB0900B8420ED2E08E0028D5D168
:100FB000E08F0028D2D13B46012202212046CDF805
:100FC000009000F01CFC08B103260FE04A463946A9
:100FD000204600F004FC18B101262020606505E0E1
:100FE000A06818B92068C16880680090012084F862
:100FF0005100002084F85000304631E74FF0E021E6
:101000000428086903D020F004000861704740F00C
:101010000400FAE7704710B5401EB0F1807F01D39D
:10102000012010BD4FF0E02460610F21601700F037
:10103000C5FB0020A06107202061002010BD10B575
:10104000FFF7E8FF10BD70B5040004D094F8390034
:10105000002510B106E0012070BD84F8385020460C
:1010600000F022F8242084F839002068C16821F4B7
:101070000051C160204600F06DFC2068016921F438
:10108000904101612068416921F02A014161206895
:10109000C16841F40051C160E563202084F8390043
:1010A00084F83A00002070BD10B50068114986B080
:1010B00088421CD11048C16941F40031C161C06946
:1010C0000E4C00F4003004900420009002200190A7
:1010D0000320039069462046FFF7B4F8002108205A
:1010E000CDE90001029169462046FFF7ABF806B052
:1010F00010BD000000440040001002400008014004
:101100002DE9F843044690F839001F4616460D466F
:10111000202850D1A5B19EB194F8380001284AD0BA
:10112000012084F838004FF00008C4F83C802120EA
:1011300084F83900FFF76AF9A6848146E68426E040
:101140000120BDE8F883E08C401EE084A0684B4697
:10115000B0F5805F4FF000024FF08001204600970D
:1011600003D000F0AFFCE8B90DE000F0ABFCC8B96B
:1011700028882168C0F308004860206908B16D1C08
:1011800005E0AD1C03E0216815F8010B4860E08C18
:101190000028D8D14B46002240212046009700F07D
:1011A00091FC08B10320CCE7202084F8390084F8B2
:1011B00038800020C5E70220C3E7FEE70E4810B5DF
:1011C0000C4901604FF48271416000218160C1606F
:1011D0004FF400720161C0E905122022C0E9072125
:1011E000416281620A21C162FFF752FC002800D0EF
:1011F000FEE710BD0030014050000020FEE77047C0
:1012000008B5002000F008F950208DF80000732088
:101210008DF801006423022269460348FFF74EFD62
:10122000012000F0F9F808BDE80000200449054A53
:101230000968B1FBF2F14143491EFDD2704700003D
:101240004C000020C0C62D0070B5054600F00DF919
:10125000044610F040060DD015B1C4F342002870CA
:101260004021072000F074FAA00603D520210720B2
:1012700000F06EFA304670BD0FB47CB514460D46D2
:101280000646582209A95D48FEF75CFF5C4B012029
:101290009E605D809C8000F0BFF8002000F0B2F8F6
:1012A0000520FEF7BDFF0821002000F051FA3F2184
:1012B000012000F04DFA0321022000F049FA032139
:1012C000084600F045FA0321042000F041FA02210B
:1012D000052000F03DFA0F21062000F039FA0E211A
:1012E000072000F035FA0021082000F031FA002133
:1012F000092000F02DFAE7248DF803408DF8024014
:101300008DF801408DF804408DF8004005226946B3
:101310000A2000F035FAC2208DF803008DF8020093
:101320008DF801008DF804008DF800000522694653
:101330000B2000F025FAC3210C2000F009FAC4218B
:101340000D2000F005FAC5210E2000F001FAC6219B
:101350000F2000F0FDF98DF803408DF802408DF864
:1013600001408DF804408DF80040052269461020A8
:1013700000F006FA0021112000F0EAF90021122005
:1013800000F0E6F90021132000F0E2F9002114201A
:1013900000F0DEF90021152000F0DAF90021162016
:1013A00000F0D6F9FFF72CFF00211C2000F0D0F947
:1013B00000211D2000F0CCF900F0F0FE0F210846BE
:1013C00000F02EF9032000F005F9012000F0D6F816
:1013D000022000F0B8F800F029F8202000F018F9F9
:1013E00000F0A6F84C2000F0C2F800F037F800F04A
:1013F00031F800F053F87CBC5DF814FBE8000020E5
:1014000000000020020003488188806800D001228B
:10141000FEF7F6BF00000020020003484188806804
:1014200000D00122FEF7ECBF0000002010B51D2007
:1014300000F040F820F004011D2000F089F900219F
:101440001C2000F085F902490020086110BD000051
:1014500000000020FF21E22000F07AB9FF21E12006
:1014600000F076B9602000F025B8072000F022B81F
:1014700013B5052269460A2000F082F90522694663
:10148000102000F07DF904484178202900D3202164
:10149000112000F05DF91CBD0000002010B50020F7
:1014A00000F008F820F00201BDE81040002000F034
:1014B0004FB9000038B504460020FFF7ADFF04F037
:1014C0001F008DF800006423012269460848FFF7D9
:1014D000F5FB6423012206480DF10101FFF746FBED
:1014E0009DF801400120FFF797FF204638BD00001E
:1014F000E8000020F8B5044615460E460020FFF728
:101500008BFF04F01F008DF8000064230122694660
:101510000648FFF7D3FB64232A4631460348FFF70A
:1015200025FB0120FFF778FFF8BD0000E800002050
:101530007021072000F00CB908B13F2100E0002124
:10154000012000F005B910B504460020FFF7B2FFF6
:1015500020F00C011CB1012C06D041F00C01BDE8BB
:101560001040002000F0F4B841F00801F7E77F28B0
:1015700000D37F200146052000F0EAB82DE9F041B4
:10158000074600260620FFF795FF114DB04620F0D4
:101590002804C5F81480022F02D0012F03D006E0E2
:1015A00044F0200403E0012044F00804686121466F
:1015B000062000F0CDF80620FFF77CFFA04201D105
:1015C000012601E0C5F814803046BDE8F081000036
:1015D0000000002010B504460620FFF76BFF20F046
:1015E0000601032C0DD0022C05D0012C06D054B1DD
:1015F000042C06D007E041F0040104E041F00201B0
:1016000001E041F00601BDE81040062000F0A0B85E
:10161000202800D320200149487070470000002096
:1016200000F00F0060F31F11042000F091B870B5B6
:1016300005460C460020FFF73DFF20F0010040F07A
:101640000201002000F084F89620FFF7EFFD21460C
:10165000284600F061F80120FFF7D4FE0F20FFF7C5
:10166000E5FDBDE870400020FFF7CCBE10B50020BE
:10167000FFF7C8FEFFF7F2FEBDE81040FFF7EABE35
:101680002DE9F04115460E460446FFF7EEFE0746EB
:10169000002020607021072000F05AF807F0200099
:1016A000206007F01000306007F040002860BDE8BF
:1016B000F08100003EB50C460546FFF739FF214694
:1016C0002846FFF7B4FFFEF7A1FE0446012201A958
:1016D0000820FFF70FFFFFF7C8FE10F0300F04D10E
:1016E000FEF794FE001B0A28F0D30A4A02A96846B6
:1016F000FFF7C6FF074C009D0C3CE06810B1FFF7F8
:10170000B1FE20700020FFF79FFDFFF7A7FE2846DF
:101710003EBD00000C00002038B505460C460020F8
:10172000FFF77AFEA0208DF80000642301226946AD
:101730000648FFF7C3FA6423224629460348FFF709
:10174000BDFA0120FFF768FE38BD0000E800002068
:1017500038B505460C460020FFF75EFE45F0200038
:101760008DF800008DF80140642302226946034889
:10177000FFF7A4FA0120FFF74FFE38BDE800002074
:10178000F8B5044615460E460020FFF745FE44F026
:1017900020008DF800006423012269460648FFF707
:1017A0008DFA64232A4631460348FFF787FA012061
:1017B000FFF732FEF8BD0000E80000200907090E1F
:1017C000002806DA00F00F0000F1E02080F8141D78
:1017D000704700F1E02080F800147047704738B57A
:1017E0000B46009204460022802100F008F80028F1
:1017F00004D0606D40F020006065032038BD2DE905
:10180000F0411D4617460E460446DDF8188035E0C7
:10181000681C33D02DB1FEF7F9FDA0EB0800A842FB
:101820002CD32068416821F0E00141606068B0F588
:10183000827F0BD1A068B0F5004F02D0B0F5806F69
:1018400004D12068016821F040010160A06AB0F570
:10185000005F0AD1206801684DF6FF7211400160F7
:101860002068016841F400510160012084F85100B2
:10187000002084F850000320BDE8F08120688068D3
:1018800036EA000004D00020B842C1D10020F3E7BE
:101890000120F9E7704710B5FEF7BEFDBDE8104026
:1018A000FFF7CDBB30B58FB001210804CDE90010A2
:1018B0000024029402250491CDE907504FF4E01072
:1018C00009906846FEF762FF00B1FEE70F20CDE900
:1018D0000A054FF48060CDE90C4002210AA80E945D
:1018E000FEF74EFE00B1FEE7FEF7F4FE4FF47A710C
:1018F000B0FBF1F0FFF78FFB0420FFF77FFB002226
:101900001146501EFEF70AFE0FB030BD0D480168AB
:1019100041F00101016041680B4A114041600168DA
:101920000A4A11400160016821F480210160416888
:1019300021F4FE0141604FF41F0181600449C0039E
:1019400008607047001002400000FFF8FFFFF6FE3D
:1019500008ED00E02DE9F041044600680169E26805
:1019600021F44051114301612169A0680843616974
:1019700008432168CA6841F20C639A430243CA6073
:1019800020684169A26921F44071114341614C49C9
:1019900020686425322688423CD1FEF7B1FE00EB78
:1019A000C00101EB001061688900B0FBF1F7FEF7A0
:1019B000A7FE00EBC00101EB00106168B046890092
:1019C000B0FBF1F0B0FBF5F06FF01801484307EB06
:1019D000800106EB0110B0FBF5F000F0F006FEF719
:1019E0008FFE00EBC00101EB001061688900B0FBC5
:1019F000F1F0B0FBF5F006EB0016FEF781FE00EB10
:101A0000C00101EB001061688900B0FBF1F7FEF73F
:101A100077FE3BE0FEF764FE00EBC00101EB001037
:101A200061688900B0FBF1F7FEF75AFE00EBC001D8
:101A300001EB00106168B0468900B0FBF1F0B0FB2B
:101A4000F5F06FF01801484307EB800106EB011039
:101A5000B0FBF5F000F0F006FEF742FE00EBC0012F
:101A600001EB001061688900B0FBF1F0B0FBF5F00C
:101A700006EB0016FEF734FE00EBC00101EB001090
:101A800061688900B0FBF1F7FEF72AFE00EBC001A8
:101A900001EB001061688900B0FBF1F0B0FBF5F0DC
:101AA0006FF01801484307EB800108EB0110B0FB11
:101AB000F5F0216800F00F0030448860BDE8F08147
:101AC000003801402DE9F041984617460E4604467D
:101AD000069D1DE0681C1BD02DB1FEF797FCA0EB06
:101AE0000800A84214D92068C16821F4D071C160EF
:101AF0002068416921F001014161202084F839000A
:101B000084F83A00002084F838000320BDE8F08112
:101B10002068006836EA000004D00020B842D9D01E
:101B20000020F3E70120F9E7FEE700000FB4084BBF
:101B300010B504A902AA039800F01CF8044602A9F3
:101B4000002000F048FA204610BC5DF814FB0000AD
:101B5000D71F000802E008C8121F08C1002AFAD1E6
:101B600070477047002001E001C1121F002AFBD11D
:101B7000704700002DE9FF4F8DB00F460546002647
:101B800006E025280BD0DDE90F1290476D1C761C6E
:101B900028780028F5D111B03046BDE8F08F002438
:101BA000A246A1460122EC4900E0044315F8013F9A
:101BB000203B02FA03F00842F7D128782A2810D0F7
:101BC0006FF02F022878A0F13001092914D80AEB10
:101BD0008A0102EB410144F0020400EB010A6D1C92
:101BE000F0E701CF5FEA000A03D544F40054CAF1DC
:101BF000000A44F002046D1C28782E2817D115F82D
:101C0000010F44F004042A280ED06FF02F02287828
:101C1000A0F1300109290AD809EB890102EB410141
:101C200000EB01096D1CF2E757F8049B6D1C287846
:101C30006C280FD006DC4C2817D068280DD06A28F5
:101C400014D104E0742810D07A280FD10DE044F4A8
:101C500000140AE044F4801401E044F4401469786C
:101C6000814202D104F580146D1C6D1C2A786E2A05
:101C70001FD00CDC632A31D004DC002A8BD0582A18
:101C800011D1A3E0642A68D0692A0CD165E0732AD7
:101C90002ED004DC6F2A73D0702A04D19BE0752A01
:101CA0006FD0782A6ED01046DDE90F129047761C6F
:101CB00050E1C4F30250022806D0032809D00428BA
:101CC00001CF09D0066045E101CFF117C0E90061FD
:101CD00040E101CF06803DE106703BE117F8040BBF
:101CE0008DF8000000208DF80100EB46012003E094
:101CF00057F804BB4FF0FF3061074FF0000102D4EA
:101D00000DE008F10101884649450FDA8045F8DB0E
:101D10001BF808100029F4D108E008F101018846F9
:101D20008142FADB1BF808100029F6D1DDE90F2308
:101D3000AAEB08008146214600F036F9304400EB5A
:101D4000080604E0DDE90F121BF8010B9047B8F11B
:101D50000108F7D221464846F7E00A21C4F30253AE
:101D60004FF0000B0891022B04D001CFC117032BB9
:101D700009D00AE0FF1D27F00707F7E8020108E095
:101D800032E01FE020E000B2C117042B01D140B2C5
:101D9000C117031E71F1000307DA4FF0000CD0EBFE
:101DA0000C006CEB01012D2302E0230504D52B234D
:101DB0008DF82430012303E0E30701D02023F7E767
:101DC000984658E00A2110E010210EE010204FF054
:101DD000000B08900CE010214FF0000B44F00404BD
:101DE0004FF00809089103E008214FF0000B08911B
:101DF000C4F30253022B04D001CF0021032B06D0E1
:101E000006E0FF1D27F00707F7E8020103E080B2B4
:101E1000042B00D1C0B24FF0000823072BD5702A45
:101E200007D0DDF820C08CF0100C5CEA0B0C05D05C
:101E30000EE040238DF82430012308E050EA01032E
:101E400006D030238DF824308DF8252002239846C3
:101E5000DDF820C08CF0080C5CEA0B0C0BD150EACA
:101E6000010301D1630706D530238DF824304FF0EC
:101E70000108A9F10109582A04D038A20B9208AA36
:101E80000A920BE03AA2F9E75B46089AFEF773F96B
:101E90000B9B9B5C0A9A521E0A92137050EA010235
:101EA000F2D10A98ADEB000000F1200B600702D5DB
:101EB00024F4803401E04FF00109D94502DDA9EB9B
:101EC0000B0000E0002000EB0B0141440890AAEB5E
:101ED000010AE00306D4DDE90F232146504600F055
:101EE00063F806444FF0000908E009A911F8090059
:101EF000DDE90F12904709F10109761CC145F4DBB9
:101F0000E0030CD5DDE90F232146504600F04CF8E4
:101F1000064404E0DDE90F1230209047761C089952
:101F2000481E08900029F5DC08E00A980A99007814
:101F3000491C0A91DDE90F129047761CBBF10001A4
:101F4000ABF1010BF1DC21465046DDE90F2300F037
:101F500019F806446D1C1BE60928010030313233A4
:101F600034353637383961626364656600000000D5
:101F700030313233343536373839414243444546BF
:101F8000000000002DE9F041044600251E461746DA
:101F9000880404D405E039462020B0476D1C641E37
:101FA000F9D52846BDE8F0812DE9F0410446002529
:101FB0001E469046C80301D5302700E0202788043C
:101FC00004D505E041463846B0476D1C641EF9D57E
:101FD0002846BDE8F0810A68531C0B6010707047FA
:101FE000ACB0FEF721FAFFF75DFC5A48816941F079
:101FF00020018161816901F020010491816941F032
:10200000040181618069544E00F004004FF4C05413
:102010000490002221463046FEF7F2F90120CDE976
:10202000004000250220CDE9025069463046FEF707
:1020300009F9FFF7C3F84A4C484820604FF4E130F3
:10204000C4E901050C20E560C4E90450A5612046FF
:10205000E561FEF7F8FF00B1FEE741493622583945
:1020600015A8FEF76FF83E4D583DE88EADF88A0092
:10207000A86B2390A88FADF89000E88FADF8920080
:10208000112205F1400125A8FEF75CF895F85100F2
:102090008DF8A500686D2A90542216A96846FEF7AF
:1020A00051F84FF4805251103046159BFFF7E4F879
:1020B00026222B490CA8FEF745F8E08CADF8560017
:1020C00005F18000016816918088ADF85C00E08D14
:1020D000ADF85E00092205F1880118A8FEF732F874
:1020E00094F839008DF8690094F83A008DF86A0088
:1020F000E06B1B90302210A96846FEF723F80DF123
:10210000300C9CE80F0000F03DF800F047F8FFF7B6
:10211000ADFA1449D1E90601FFF7AAF90020FFF74B
:102120000BFA3420FFF723FA2020FFF771FA4FF45F
:102130007A740C4820212030FFF7BCFA28B10A231A
:102140001A2209A10648FEF7DBFF2046FEF768F8D1
:10215000EFE700000010024000080140004400408A
:10216000A8000020000000205472616E736D697435
:10217000746564205375636365737366756C6C79FD
:102180000D0A00000FB4402210B502A90248FDF765
:10219000D9FF10BC5DF814FB4001002010B5A0B0C1
:1021A000F4A104A8FFF7C2FC04A8FDF7DDFF82B28A
:1021B0000A2304A9FC48FEF7A3FF0020FFF77AF9E1
:1021C00001077AD5400701D5F8A100E0FEA104A8D7
:1021D000FFF7ACFC04A8FDF7C7FF82B20A2304A9ED
:1021E000F148FEF78DFF0120FFF764F9C0F34014BA
:1021F000C0F30013C0F3C002C0F380018DE81E00DD
:1022000000F00102C0F34003F64904A8FFF78EFC7A
:1022100004A8FDF7A9FF82B20A2304A9E248FEF749
:102220006FFF0220FFF746F9C0F34014C0F300131C
:10223000C0F3C002C0F380018DE81E0000F001026F
:10224000C0F34003E84904A8FFF770FC04A8FDF7B9
:102250008BFF82B20A2304A9D348FEF751FF032063
:10226000FFF728F900F00302E0A104A8921CFFF791
:102270005DFC04A8FDF778FF82B20A2304A9CA48CE
:10228000FEF73EFF0520FFF715F900F07F02DEA103
:1022900004A8FFF74BFC04A8FDF766FF82B20A23EF
:1022A00004A9C148FEF72CFF0620FFF703F90446F6
:1022B000000704D5D9A103E0FFE7DEA187E7E2A18B
:1022C00004A8FFF733FC04A8FDF74EFF82B20A23EF
:1022D00004A9B548FEF714FF032010EA540006D005
:1022E000012806D0022806D0032806D009E0DCA188
:1022F00004E0E0A102E0E4A100E0E8A104A8FFF707
:1023000015FC04A8FDF730FF82B20A2304A9A648F1
:10231000FEF7F6FE05221DA90A20FFF7EBF89DF84F
:1023200076009DF874209DF875108DE807009DF8E3
:1023300077309DF87820DEA104A8FFF7F7FB04A80A
:10234000FDF712FF82B20A2304A99748FEF7D8FED0
:1023500005221DA90B20FFF7CDF89DF876009DF80A
:1023600074209DF875108DE807009DF877309DF872
:102370007820DBA104A8FFF7D9FB04A8FDF7F4FE41
:1023800082B20A2304A98848FEF7BAFE01221DA9D9
:102390000C20FFF7AFF89DF87420DDA104A8FFF72B
:1023A000C5FB04A8FDF7E0FE82B20A2304A97E481B
:1023B000FEF7A6FE01221DA90D20FFF79BF89DF850
:1023C0007420DDA104A8FFF7B1FB04A8FDF7CCFE43
:1023D00082B20A2304A97448FEF792FE01221DA9C5
:1023E0000E20FFF787F89DF87420DDA104A8FFF701
:1023F0009DFB04A8FDF7B8FE82B20A2304A96A482F
:10240000FEF77EFE01221DA90F20FFF773F89DF84D
:102410007420DDA104A8FFF789FB04A8FDF7A4FE42
:1024200082B20A2304A96048FEF76AFE05221DA9AC
:102430001020FFF75FF89DF876009DF874209DF856
:1024400075108DE807009DF877309DF87820D8A1A9
:1024500004A8FFF76BFB04A8FDF786FE82B20A23EF
:1024600004A95148FEF74CFE1120FFF723F800F0B5
:102470003F02DAA104A8FFF759FB04A8FDF774FE98
:1024800082B20A2304A94848FEF73AFE1220FFF759
:1024900011F800F03F02D8A104A8FFF747FB04A8F9
:1024A000FDF762FE82B20A2304A93F48FEF728FE28
:1024B0001320FEF7FFFF00F03F02D6A104A8FFF7AC
:1024C00035FB04A8FDF750FE82B20A2304A9364862
:1024D000FEF716FE1420FEF7EDFF00F03F02D4A138
:1024E00004A8FFF723FB04A8FDF73EFE82B20A23EF
:1024F00004A92D48FEF704FE1520FEF7DBFF00F0CF
:102500003F02D2A104A8FFF711FB04A8FDF72CFE9F
:1025100082B20A2304A92448FEF7F2FD1620FEF732
:10252000C9FF00F03F02D0A104A8FFF7FFFA04A8FA
:10253000FDF71AFE82B20A2304A91B48FEF7E0FD4C
:102540001C20FEF7B7FFC0F34014C0F30013C0F324
:10255000C002C0F380018DE81E0000F00102C0F34C
:102560004003C84904A8FFF7E1FA04A8FDF7FCFD01
:1025700082B289E10D0A2A2A2A2A2A2A2A2A2A2A02
:102580002A2A2A2A2A2A2A2A2A2A2A2A2A2A2A2AAB
:102590002A2A2A2A2A2A2A2A2A2A2A2A2A2A2A2A9B
:1025A0002A2A2A2A0D0A0000400100204352433AF9
:1025B0000D0A0909456E61626C65642C2032204267
:1025C00079746573200D0A004352433A0D0A0909D4
:1025D000456E61626C65642C2031204279746520FF
:1025E0000D0A000084290008C829000853455455E5
:1025F000505F41573A0D0A090925642062797465D4
:1026000073200D0A0000000052465F43483A0D0A4D
:1026100009092564204348200D0A000044617461C3
:1026200020526174653A0D0A0909324D62707320B7
:102630000D0A00004352433A0D0A090944697361C7
:10264000626C6564200D0A004461746120526174FB
:10265000653A0D0A0909314D627073200D0A0000B8
:1026600052465F5057523A0D0A09092D31386442DB
:10267000200D0A0052465F5057523A0D0A09092DA3
:1026800031326442200D0A0052465F5057523A0DD3
:102690000A09092D366442200D0A000052465F5097
:1026A00057523A0D0A0909306442200D0A00000011
:1026B00052585F50697065302041646472733A0DFE
:1026C0000A0909253032582C253032582C25303251
:1026D000582C253032582C2530325820200D0A0035
:1026E00052585F50697065312041646472733A0DCD
:1026F0000A0909253032582C253032582C25303221
:10270000582C253032582C2530325820200D0A0004
:1027100052585F50697065322041646472733A0D9B
:102720000A090978782C78782C78782C78782C25F8
:1027300030325820200D0A0052585F5069706533BE
:102740002041646472733A0D0A090978782C78780C
:102750002C78782C78782C2530325820200D0A00DF
:1027600052585F50697065342041646472733A0D49
:102770000A090978782C78782C78782C78782C25A8
:1027800030325820200D0A0052585F50697065356C
:102790002041646472733A0D0A090978782C7878BC
:1027A0002C78782C78782C2530325820200D0A008F
:1027B00054582041646472733A0D0A090925303275
:1027C000582C253032582C253032582C2530325890
:1027D0002C2530325820200D0A00000052585F503E
:1027E000575F50303A0D0A090925642062797465F3
:1027F00073200D0A0000000052585F50575F50319F
:102800003A0D0A09092564206279746573200D0A5E
:102810000000000052585F50575F50323A0D0A09CD
:10282000092564206279746573200D0A0000000098
:1028300052585F50575F50333A0D0A0909256420FA
:102840006279746573200D0A0000000052585F50D1
:10285000575F50343A0D0A0909256420627974657E
:1028600073200D0A0000000052585F50575F50352A
:102870003A0D0A09092564206279746573200D0AEE
:1028800000000000142A00080A2304A91C48FEF7CF
:1028900037FC1D20FEF70EFE0446400701D519A1A6
:1028A00000E01EA104A8FFF741F904A8FDF75CFCB5
:1028B00082B20A2304A91248FEF722FCA00701D520
:1028C0001CA100E022A104A8FFF730F904A8FDF73D
:1028D0004BFC82B20A2304A90948FEF711FCAFF2AF
:1028E0006C3104A8FFF722F904A8FDF73DFC82B281
:1028F0000A2304A90248FEF703FC20B010BD000023
:1029000040010020454E5F44504C3A0D0A090945EC
:102910006E61626C6564200D0A000000454E5F44E4
:10292000504C3A0D0A090944697361626C65642070
:102930000D0A0000454E5F41434B5F5041593A0D2F
:102940000A0909456E61626C6564200D0A00000089
:10295000454E5F41434B5F5041593A0D0A090944C6
:10296000697361626C6564200D0A0000000000005C
:10297000000000000102030406070809000000002F
:1029800001020304454E41413A0D0A090950303A0B
:102990000925640D0A090950313A0925640D0A090F
:1029A0000950323A0925640D0A090950333A0925BC
:1029B000640D0A090950343A0925640D0A090950C1
:1029C000353A0925640D0A00454E5F52584144448A
:1029D000523A0D0A090950303A0925640D0A0909CD
:1029E00050313A0925640D0A090950323A09256423
:1029F0000D0A090950333A0925640D0A09095034B2
:102A00003A0925640D0A090950353A0925640D0A69
:102A10000000000044594E50445F706970653A0DE3
:102A20000A090950303A0925640D0A090950313A5A
:102A30000925640D0A090950323A0925640D0A096D
:102A40000950333A0925640D0A090950343A092519
:102A5000640D0A090950353A0925640D0A00000081
:102A6000802A00080000002050000000541B0008CD
:102A7000D02A00085000002030050000641B000828
:102A80000000000000000000000000000000000046
:102A90000000000000000000AA44332211000000E2
:102AA0006F75722066697273742070726F6A6563E5
:102AB000742077697468206E726600000000000060
:102AC00001000000100000000000000000A24A0405
:04000005080000ED02
:00000001FF
