:020000040800F2
:100000009005002001010008471200089B1100081C
:10001000451200081B0200089D1A0008000000009D
:1000200000000000000000000000000009180008A7
:100030001D02000800000000511700080B180008FE
:100040001B0100081B0100081B0100081B01000820
:100050001B0100081B0100081B0100081B01000810
:100060001B0100081B0100081B0100081B01000800
:100070001B0100081B0100081B0100081B010008F0
:100080001B0100081B0100081B0100081B010008E0
:100090001B0100081B0100081B0100081B010008D0
:1000A0001B0100081B0100081B0100081B010008C0
:1000B0001B0100081B0100081B0100081B010008B0
:1000C0001B0100081B0100081B0100081B010008A0
:1000D0001B0100081B0100081B0100081B01000890
:1000E0001B0100081B0100081B010008DFF80CD0F1
:1000F00000F072F800480047551F000890050020E6
:100100000648804706480047FEE7FEE7FEE7FEE7B1
:10011000FEE7FEE7FEE7FEE7FEE7FEE781180008E0
:10012000ED000008202A04DB203A21FA02F0002129
:10013000704721FA02F3D040C2F1200291400843F7
:100140001946704740EA01039B0703D009E008C93C
:10015000121F08C0042AFAD203E011F8013B00F88C
:10016000013B521EF9D27047421C10F8011B0029B6
:10017000FBD1801A70472DE9F05F054600209246BA
:100180009B4688460646814640241BE02846414659
:1001900047462246FFF7C6FF53465A46C01A9141CA
:1001A00010D311461846224600F028F82D1A67EBA6
:1001B00001084F4622460120002100F01FF817EBEE
:1001C00000094E41201EA4F10104DFDC48463146FF
:1001D0002A464346BDE8F09F064C074D06E0E0681E
:1001E00040F0010394E8070098471034AC42F6D37E
:1001F000FFF780FF80280008A0280008202A04DBE1
:10020000203A00FA02F1002070479140C2F1200329
:1002100020FA03F3194390407047FEE7704700004F
:100220002DE9F84FDFF890A100220AF1040B1446E3
:1002300001274FF00F090BF1040E00BF0B6807FAFE
:1002400004F52B40AB4274D1DFF870C14E68A6EBC9
:100250000C0866452BD00DDC032E34D005DC36B3FC
:10026000012E19D0022E2FD11BE0112E16D0122EE6
:100270002AD119E0B8F5881F19D006DCB8F5803FFF
:1002800015D0B8F5801F1FD111E0B8F5001F0ED0B2
:10029000B8F5041F18D10AE0CA6815E0CA68121D33
:1002A00012E0CA6808320FE0CA680C320CE08A68B3
:1002B0002AB1012A4FF0080203D0456104E004226C
:1002C00002E0056100E00022FF2B01D8064601E0B4
:1002D00000F104064FEA840501D9A5F12005D6F8FE
:1002E00000C009FA05F82CEA080C02FA05F54CEAF8
:1002F000050CC6F800C04D68ED0057D5304DAE690D
:1003000046F00106AE61AD6924F0030605F0010573
:1003100000952C4D06EB050CDCF80850A6074FEABB
:10032000167809FA08F6B543274EB04202D10026E6
:1003300010E03BE0254EB04201D101260AE0244EF8
:10034000B04201D1022605E0224EB04201D103267F
:1003500000E0042606FA08F62E43CCF808604D6843
:10036000DAF80060ED03554601D51E4300E09E43D8
:100370002E604D68DBF80060AD035D4601D51E437D
:1003800000E09E432E604D68DEF80060ED02754689
:1003900001D51E4300E09E432E604D68AD020E4D18
:1003A0002E6801D51E4300E09E432E60641C102C75
:1003B000FFF444AFBDE8F88F0004014000001110C5
:1003C000001002400000014000080140000C014004
:1003D00000100140001401400C0401400AB1016109
:1003E00070470904FBE7000001488068704700007F
:1003F000080000200248816802781144816070473B
:1004000008000020074810B5016841F010010160A4
:10041000032000F091F8002000F006F800F024F826
:10042000002010BD0020024070B50D4D04464FF471
:100430007A712878B1FBF0F00A490968B1FBF0F055
:1004400000F0D9FD48B9102C07D200222146501ED9
:1004500000F052F800206C6070BD012070BD0000FB
:100460000800002014000020214808B5816941F0EF
:1004700001018161816901F001010091C16941F0CF
:100480008051C161C06900F080500090032000F0ED
:1004900053F8002211466FF00B0000F02DF80022F7
:1004A00011466FF00A0000F027F8002211466FF0A5
:1004B000090000F021F800221146501F00F01CF83E
:1004C00000221146101F00F017F800221146901E5E
:1004D00000F012F800221146501E00F00DF80548F9
:1004E000416821F0E06141F00071416008BD000009
:1004F0000010024000000140F0B40E4B1B680C4697
:10050000C3F30223C3F10705042D00D90425191DE7
:10051000072901D2002300E0DB1E012606FA05F1BF
:10052000491E214099409E40761E16403143F0BC42
:1005300001F0FEB80CED00E0064900F00702086883
:100540004FF6FF03184040EA0220034A10430860B8
:10055000704700000CED00E00000FA052DE9F047BF
:10056000DFF83C8105460E46D8F8000000F0070091
:10057000B0420CD2D8F8001021F007013143C8F87E
:100580000010D8F8000000F00700B04263D12878CE
:10059000444C800705D56068A96820F0F000084346
:1005A00060602878C00745D06868012816D02168A7
:1005B000022816D0890700294DDA616821F003016D
:1005C00001436160FFF710FF6968074641F2883018
:1005D00001290FD00229814619D027E0216889031B
:1005E000E9E78901E7E700BFFFF7FEFEC11B4945C8
:1005F00001D918E081466068C0F381000128F3D179
:1006000018E000BFFFF7F0FEC11B49450BD860683A
:10061000C0F381000228F5D10CE000BFFFF7E4FE33
:10062000C11B494502D90320BDE8F087606810F07E
:100630000C0FF3D1D8F80010404601F00701B14289
:100640000BD9016821F0070131430160006800F017
:100650000700B04201D00120E6E72878400705D521
:100660006068E96820F4E06008436060287800076B
:1006700006D56068296920F4605040EAC1006060D6
:1006800000F03CF86168084AC1F30311515CC840AE
:10069000064908600020FFF7C7FE0020C4E70000FD
:1006A000002002400010024014280008140000201E
:1006B0000148006870470000140000200448054904
:1006C00000684968044AC1F30221515CC840704780
:1006D00014000020001002402428000804480549A6
:1006E00000684968044AC1F3C221515CC8407047A0
:1006F00014000020001002402428000812A185B038
:100700000FC98DE80F0014A0144A006804905168C6
:10071000134801F00C03042B10D0082B0ED1C1F3A9
:100720008343C9031DF803000AD5516804AAC1F325
:100730004041515C0A4A5043B0FBF1F005B07047AC
:1007400008494843FAE700000203040506070809C0
:100750000A0B0C0D0E0F10100102000000100240D9
:1007600000127A0000093D002DE9F84F0446007898
:10077000B94DC00748D06868C0F38100012807D090
:100780006868C0F38100022809D16868C00306D5F3
:100790002868800338D5606800286FD034E060682E
:1007A000B0F5803F0BD010B1B0F5A02F11D0286864
:1007B00020F480302860286820F4802002E0286837
:1007C00040F480302860606888B1FFF70DFE06466F
:1007D00009E0286840F480202860F0E7FFF704FE75
:1007E000801B642875D828688003F7D50CE0FFF7D4
:1007F000FBFD064605E000BFFFF7F6FD801B642801
:10080000F0D828688003F7D42078944E80074FF002
:1008100001094FF000083BD5686810F00C0F07D0B5
:100820006868C0F38100022809D16868C00306D453
:100830002868800714D5206901281FD110E020699D
:10084000B0B1C6F80090FFF7CFFD074605E000BF46
:10085000FFF7CAFDC01B0228C4D828688007F7D557
:100860002868616920F0F80040EAC10028600FE0C4
:10087000C6F80080FFF7B8FD074606E0E9E000BFD4
:10088000FFF7B2FDC01B022823D828688007F7D4E1
:10089000207800072CD57248A169D9B1C0F8009022
:1008A000FFF7A2FD074604E0FFF79EFDC01B0228EC
:1008B0000FD8686A8007F7D56A484FF4FA51006884
:1008C000B0FBF1F0009000BF0098411E0091FAD2F9
:1008D0000EE080E0C0F80080FFF786FD074604E0E8
:1008E000FFF782FDC01B022875D8686A8007F7D41D
:1008F0002078400760D5E8690027C00008D4E8697F
:1009000040F08050E861E869012700F080500090D5
:1009100055480168C90513D40168834641F48071C4
:100920000160FFF761FD824606E000BFFFF75CFD56
:10093000A0EB0A0064284ED8DBF80000C005F5D50E
:10094000E06801280AD008B1052813D0286A20F0F1
:1009500001002862286A20F0040002E0286A40F0C2
:1009600001002862E06841F2883B98B1FFF73CFD46
:1009700082460BE0286A40F004002862EEE700BFE0
:10098000FFF732FDA0EB0A0159455AD8286A8007C3
:10099000F6D50CE0FFF728FD824605E0FFF724FDC1
:1009A000A0EB0A0159454CD8286A8007F6D41FB13C
:1009B000E86920F08050E861E06988B36968C1F3B4
:1009C0008101022945D00228C6F8608004D0FFF7D3
:1009D0000BFD044638E034E0FFF706FD074604E06F
:1009E000FFF702FDC01B02282BD828688001F7D42E
:1009F000206AB0F5803F05D16868A16820F4003016
:100A000008436860D4E908010843696821F4741157
:100A100008436860C6F86090FFF7E6FC044606E00D
:100A200015E000BFFFF7E0FC001B022809D828688A
:100A30008001F7D50BE000BFFFF7D6FC001B0228B2
:100A400002D90320BDE8F88F28688001F4D4002083
:100A5000F8E70120F6E700000010024000004242E3
:100A600080044242140000200070004070B5040071
:100A700005D00025A56294F8510010B104E00120D2
:100A800070BD204600F034F8022084F85100206840
:100A9000016821F040010160D4E901010843D4E973
:100AA00003121143084361690843218B01F400716B
:100AB0000843E1690843216A0843A16A08432168A1
:100AC0000860A069042101EA1040616A08432168B6
:100AD00048602168E06A08612068C16921F400610A
:100AE000C1616565012084F85100002070BD0000DF
:100AF00010B50068124986B088421ED11148C169FC
:100B000041F48041C161C0690F4C00F48040049001
:100B10004FF420400090022001900320039069468A
:100B20002046FFF77DFB00214FF48040CDE9000116
:100B3000029169462046FFF773FB06B010BD000026
:100B40000038004000100240000C01402DE9F84F31
:100B5000044640680026984617460D464FF00409A3
:100B6000B0F5827F01D1A06890B194F850000128BF
:100B700019D04FF0010B84F850B0FFF735FC00900E
:100B800094F851004FF0000A01280ED002267FE0B1
:100B900084F8519013460A462046CDF8008000F0B4
:100BA00031F9BDE8F88F0220FBE7002D6FD0002F50
:100BB0006DD084F85190C4F854A0A563A787E78747
:100BC000C4F830A0A4F834A0A4F836A0C4F840A01B
:100BD000C4F844A0A0684FF40047B84204D120688C
:100BE000016821F48041016020680168490603D44E
:100BF000016841F040010160E068B8B133E020686D
:100C00008168C90706D0007B05F8010BE08F401E04
:100C1000E0870BE0B8F1000F23D0B8F1FF3F05D01B
:100C2000FFF7E2FB0099411A41451AD2E08F0028F4
:100C3000E5D11BE020688168C90706D0C06825F8A7
:100C4000020BE08F401EE0870DE0B8F1000F08D0E6
:100C5000B8F1FF3F07D0FFF7C7FB0099411A4145A4
:100C600001D3032614E0E08F0028E3D16068B0F5DB
:100C7000827F0AD1A068B84202D0B0F5806F04D15B
:100C80002068016821F040010160606D00B101261B
:100C900084F851B084F850A0304682E72DE9F84F2F
:100CA000044690F850000026994617460D46012844
:100CB0000DD04FF0010B84F850B0FFF795FB804644
:100CC00094F85100B246012804D0022694E0022094
:100CD000BDE8F88F002D7BD0002F79D0032084F859
:100CE0005100C4F854A02563A786E786C4F838A04D
:100CF000A4F83CA0A4F83EA0C4F844A0C4F840A0C6
:100D0000A068B0F5004F04D12068016841F480412B
:100D1000016020680168490603D4016841F0400180
:100D20000160E068B0F5006F606804D030B3E08E19
:100D3000012823D03EE010B1E08E01281AD135F809
:100D4000021B206805E020688168890706D535F810
:100D5000021BC160E08E401EE0860BE0B9F1000F7F
:100D600034D0B9F1FF3F05D0FFF73EFBA0EB0801FF
:100D700049452BD2E08E0028E5D11EE0216815F808
:100D8000010B087306E020688168890706D515F80D
:100D9000011B0173E08E401EE0860BE0B9F1000FED
:100DA00014D0B9F1FF3F05D0FFF71EFBA0EB0801FF
:100DB00049450BD2E08E0028E5D14B4601220221A5
:100DC0002046CDF8008000F0D4FC10B1032613E0DB
:100DD00011E042464946204600F0BBFC18B101260E
:100DE0002020606508E0A06818B92068C1688068A4
:100DF0000090606D00B1012684F851B084F850A0D5
:100E0000304665E72DE9F84F044690F8500000267B
:100E10000A9F9A4693460D464FF0010801280ED0CE
:100E2000012084F85000FFF7DFFA814694F8510062
:100E3000616801280CD0B1F5827F07D102E0022061
:100E4000BDE8F88FA16809B9042801D00226BDE0E9
:100E500055B1BBF1000F07D0BAF1000F04D094F8E0
:100E60005100012802D004E00126AFE0052084F8FB
:100E7000510000206065C4F838B0A4F83EA0A4F882
:100E80003CA02563A4F836A0A4F834A020646064D4
:100E900020680168490603D4016841F040010160FF
:100EA000E068B0F5006F606804D0E8B3E08E012818
:100EB0003BD06AE010B1E08E01282ED1216835F8D0
:100EC000020BC860E08E401EE08626E0B8F1000FFD
:100ED0000DD0E08E58B120688168890707D535F8B4
:100EE000021BC160E08E401EE0864FF00008E08FDC
:100EF00058B120688168C90707D0C0682BF8020B79
:100F0000E08F401EE0874FF00108781C05D0FFF706
:100F10006BFAA0EB0900B84246D2E08E0028D5D18A
:100F2000E08F0028D2D136E0FFE7216815F8010BE9
:100F30000873E08E401EE08627E000BFB8F1000F86
:100F40000DD0E08E58B120688168890707D515F863
:100F5000011B0173E08E401EE0864FF00008E08F19
:100F600058B120688168C90707D0C0680BF8010B29
:100F7000E08F401EE0874FF00108781C05D0FFF796
:100F800033FAA0EB0900B8420ED2E08E0028D5D18A
:100F9000E08F0028D2D13B46012202212046CDF825
:100FA000009000F0E6FB08B103260FE04A46394600
:100FB000204600F0CEFB18B101262020606505E038
:100FC000A06818B92068C16880680090012084F882
:100FD0005100002084F85000304631E74FF0E02106
:100FE0000428086903D020F004000861704740F02D
:100FF0000400FAE7704710B5401EB0F1807F01D3BE
:10100000012010BD4FF0E02460610F21601700F057
:101010008FFB0020A06107202061002010BD10B5CB
:10102000FFF7E8FF10BD70B5040004D094F8390054
:10103000002510B106E0012070BD84F8385020462C
:1010400000F022F8242084F839002068C16821F4D7
:101050000051C160204600F037FC2068016921F48E
:10106000904101612068416921F02A0141612068B5
:10107000C16841F40051C160E563202084F8390063
:1010800084F83A00002070BD10B50068114986B0A0
:1010900088421DD11048816941F480418161806995
:1010A0000E4C00F4804004904FF400700090022039
:1010B00001900320039069462046FFF7B1F8002114
:1010C0002015CDE90001029169462046FFF7A8F8F6
:1010D00006B010BD00380140001002400008014079
:1010E0002DE9F843044690F839001F4616460D4690
:1010F000202850D1A5B19EB194F8380001284AD0DB
:10110000012084F838004FF00008C4F83C8021200A
:1011100084F83900FFF768F9A6848146E68426E062
:101120000120BDE8F883E08C401EE084A0684B46B7
:10113000B0F5805F4FF000024FF08001204600972D
:1011400003D000F079FCE8B90DE000F075FCC8B9F7
:1011500028882168C0F308004860206908B16D1C28
:1011600005E0AD1C03E0216815F8010B4860E08C38
:101170000028D8D14B46002240212046009700F09D
:101180005BFC08B10320CCE7202084F8390084F808
:1011900038800020C5E70220C3E7FEE7174810B5F6
:1011A000816986B041F020018161816901F02001EF
:1011B0000491816941F004018161816901F00401B8
:1011C0000491816941F00801816180690C4C00F053
:1011D00008000490002206212046FFF7FFF80620B1
:1011E00000900120019000200290022003906946A7
:1011F0002046FFF715F806B010BD000000100240B1
:10120000000801400E4810B50C4901604FF482718E
:10121000416000218160C1604FF400720161C0E94A
:1012200005121822C0E90721416281620A21C162C8
:10123000FFF71CFC002800D0FEE710BD003800407E
:1012400028000020FEE7704708B5002000F0E8F80D
:1012500050208DF8000073208DF8010064230222D5
:1012600069460348FFF71AFD012000F0D9F808BDD0
:10127000F40000200449054A0968B1FBF2F141433A
:10128000491EFDD27047000014000020C0C62D008A
:1012900070B5072000F060F9044610F0400509D051
:1012A0004021072000F00EFAA00603D5DF21072019
:1012B00000F008FA284670BD0FB47CB514460D4600
:1012C0000646582209A94F48FEF73CFF4E4B012025
:1012D0009E605D809C8000F0A3F8002000F096F8EE
:1012E00040F2DC50FFF7C6FF0821002000F0EAF9C9
:1012F0003F21012000F0E6F90321022000F0E2F98D
:101300000321084600F0DEF90321042000F0DAF999
:101310000221052000F0D6F90F21062000F0D2F9B5
:101320000E21072000F0CEF90021082000F0CAF9B4
:101330000021092000F0C6F9E7248DF803408DF85C
:1013400002408DF801408DF804408DF800400522E0
:1013500069460A2000F0CEF9C2208DF803008DF80E
:1013600002008DF801008DF804008DF800000522C0
:1013700069460B2000F0BEF9C3210C2000F0A2F951
:10138000C4210D2000F09EF9C5210E2000F09AF92D
:10139000C6210F2000F096F98DF803408DF8024029
:1013A0008DF801408DF804408DF800400522694613
:1013B000102000F09FF90021112000F083F9002196
:1013C000122000F07FF90021132000F07BF90021AA
:1013D000142000F077F90021152000F073F90021A6
:1013E000162000F06FF9FFF72FFF00211C2000F0FE
:1013F00069F900211D2000F065F900F053FE7CBC66
:101400005DF814FBF40000201800002002000348DF
:101410008188806800D00122FEF7E0BF180000201C
:10142000020003484188806800D00122FEF7D6BF41
:101430001800002010B51D2000F08EF820F00401E7
:101440001D2000F03FF900211C2000F03BF902496B
:101450000020C86010BD00001800002010B5082151
:10146000092000F00FF9002000F0B4F8022000F08D
:10147000E3F8012000F0D0F8022000F0B2F8FFF706
:10148000D9FF202000F0F6F87021072000F01AF9AB
:101490004C2000F0BAF8FF21E12000F013F9FF2101
:1014A000E22000F00FF900F029F8BDE8104000F04C
:1014B000F9BD00001FB5044606281AD80D48022CB5
:1014C000005D01D2052200E0012202A900F012F91C
:1014D00008480949801F005D097800F0F3F80220F0
:1014E00000F03AF80121A1400843C1B2022000F007
:1014F000E9F81FBD322800081800002010B50020B0
:1015000000F02AF820F00201BDE81040002000F0B1
:10151000D9B8000038B505460D480478A14200D27C
:101520000C460020FFF77CFF61208DF8000064234B
:10153000012269460748FFF7B1FB6423224629468A
:101540000448FFF703FB0120FFF76AFF38BD0000E6
:1015500018000020F400002038B504460020FFF7F2
:101560005FFF04F01F008DF800006423012269462C
:101570000848FFF793FB6423012206480DF101019F
:10158000FFF7E4FA9DF801400120FFF749FF2046EC
:1015900038BD0000F4000020F8B5044615460E469C
:1015A0000020FFF73DFF04F01F008DF800006423CA
:1015B000012269460648FFF771FB64232A4631463B
:1015C0000348FFF7C3FA0120FFF72AFFF8BD000028
:1015D000F400002008B13F2100E00021012000F0CC
:1015E00071B810B504460020FFF7B6FF20F00C01DB
:1015F0001CB1012C06D041F00C01BDE810400020C8
:1016000000F060B841F00801F7E77F2800D37F20A1
:101610000146052000F056B810B504460620FFF735
:101620009BFF20F00801012C01D141F00801BDE829
:101630001040062000F046B810B504460620FFF71B
:101640008BFF20F00601032C0DD0022C05D0012CBD
:1016500006D054B1042C06D007E041F0040104E0A8
:1016600041F0020101E041F00601BDE81040062012
:1016700000F028B8202800D32020014908707047C6
:101680001800002041EA0010C1B2042000F01AB88E
:1016900010B50020FFF760FF40F00301002000F0CC
:1016A00011F8FF21E12000F00DF8FF21E22000F009
:1016B00009F80120FFF7AAFEBDE810409620FFF7C9
:1016C000D9BD000038B505460C460020FFF7A8FE3E
:1016D00045F020008DF800008DF8014064230222BF
:1016E00069460348FFF7DAFA0120FFF799FE38BD93
:1016F000F4000020F8B5044615460E460020FFF71A
:101700008FFE44F020008DF800006423012269461A
:101710000648FFF7C3FA64232A4631460348FFF719
:10172000BDFA0120FFF77CFEF8BD0000F4000020A8
:101730000907090E002806DA00F00F0000F1E0208A
:1017400080F8141D704700F1E02080F80014704705
:10175000704738B50B46009204460022802100F005
:1017600008F8002804D0606D40F020006065032078
:1017700038BD2DE9F0411D4617460E460446DDF8FA
:10178000188035E0681C33D02DB1FEF72DFEA0EB9C
:101790000800A8422CD32068416821F0E001416094
:1017A0006068B0F5827F0BD1A068B0F5004F02D021
:1017B000B0F5806F04D12068016821F0400101601C
:1017C000A06AB0F5005F0AD1206801684DF6FF728B
:1017D000114001602068016841F40051016001205E
:1017E00084F85100002084F850000320BDE8F08107
:1017F0002068806836EA000004D00020B842C1D1D9
:101800000020F3E70120F9E7704710B5FEF7F2FD7D
:10181000BDE81040FFF703BC30B58FB001210804CC
:10182000CDE900100024029402250491CDE907506F
:101830004FF4E01009906846FEF796FF00B1FEE70E
:101840000F20CDE90A054FF48060CDE90C4002215C
:101850000AA80E94FEF782FE00B1FEE7FEF728FF0D
:101860004FF47A71B0FBF1F0FFF7C5FB0420FFF7EE
:10187000B5FB00221146501EFEF73EFE0FB030BDF4
:101880000D48016841F00101016041680B4A1140B7
:10189000416001680A4A11400160016821F4802119
:1018A0000160416821F4FE0141604FF41F01816035
:1018B0000449C00308607047001002400000FFF8B0
:1018C000FFFFF6FE08ED00E02DE9F0410446006858
:1018D0000169E26821F44051114301612169A06866
:1018E0000843616908432168CA6841F20C639A435E
:1018F0000243CA6020684169A26921F44071114322
:1019000041614C4920686425322688423CD1FEF76B
:10191000E5FE00EBC00101EB001061688900B0FB3F
:10192000F1F7FEF7DBFE00EBC00101EB0010616890
:10193000B0468900B0FBF1F0B0FBF5F06FF0180194
:10194000484307EB800106EB0110B0FBF5F000F017
:10195000F006FEF7C3FE00EBC00101EB001061686A
:101960008900B0FBF1F0B0FBF5F006EB0016FEF7D6
:10197000B5FE00EBC00101EB001061688900B0FB0F
:10198000F1F7FEF7ABFE3BE0FEF798FE00EBC0017F
:1019900001EB001061688900B0FBF1F7FEF78EFEE5
:1019A00000EBC00101EB00106168B0468900B0FB9C
:1019B000F1F0B0FBF5F06FF01801484307EB800140
:1019C00006EB0110B0FBF5F000F0F006FEF776FE36
:1019D00000EBC00101EB001061688900B0FBF1F081
:1019E000B0FBF5F006EB0016FEF768FE00EBC00159
:1019F00001EB001061688900B0FBF1F7FEF75EFEB5
:101A000000EBC00101EB001061688900B0FBF1F050
:101A1000B0FBF5F06FF01801484307EB800108EBCD
:101A20000110B0FBF5F0216800F00F003044886031
:101A3000BDE8F081003801402DE9F0419846174695
:101A40000E460446069D1DE0681C1BD02DB1FEF716
:101A5000CBFCA0EB0800A84214D92068C16821F48F
:101A6000D071C1602068416921F0010141612020ED
:101A700084F8390084F83A00002084F83800032004
:101A8000BDE8F0812068006836EA000004D000203C
:101A9000B842D9D00020F3E70120F9E7FEE70000C3
:101AA0000FB4084B10B504A902AA039800F01CF863
:101AB000044602A9002000F048FA204610BC5DF858
:101AC00014FB00004B1F000802E008C8121F08C1E9
:101AD000002AFAD170477047002001E001C1121FAF
:101AE000002AFBD1704700002DE9FF4F8DB00F4653
:101AF0000546002606E025280BD0DDE90F129047A9
:101B00006D1C761C28780028F5D111B03046BDE850
:101B1000F08F0024A246A1460122EC4900E00443D4
:101B200015F8013F203B02FA03F00842F7D128786C
:101B30002A2810D06FF02F022878A0F1300109294F
:101B400014D80AEB8A0102EB410144F0020400EBD5
:101B5000010A6D1CF0E701CF5FEA000A03D544F4E7
:101B60000054CAF1000A44F002046D1C28782E28A3
:101B700017D115F8010F44F004042A280ED06FF095
:101B80002F022878A0F1300109290AD809EB890130
:101B900002EB410100EB01096D1CF2E757F8049BD1
:101BA0006D1C28786C280FD006DC4C2817D06828CC
:101BB0000DD06A2814D104E0742810D07A280FD1EF
:101BC0000DE044F400140AE044F4801401E044F40D
:101BD00040146978814202D104F580146D1C6D1C9B
:101BE0002A786E2A1FD00CDC632A31D004DC002A4C
:101BF0008BD0582A11D1A3E0642A68D0692A0CD16D
:101C000065E0732A2ED004DC6F2A73D0702A04D1C9
:101C10009BE0752A6FD0782A6ED01046DDE90F124E
:101C20009047761C50E1C4F30250022806D00328E6
:101C300009D0042801CF09D0066045E101CFF11792
:101C4000C0E9006140E101CF06803DE106703BE163
:101C500017F8040B8DF8000000208DF80100EB460A
:101C6000012003E057F804BB4FF0FF3061074FF04D
:101C7000000102D40DE008F10101884649450FDA60
:101C80008045F8DB1BF808100029F4D108E008F1C2
:101C9000010188468142FADB1BF808100029F6D1C1
:101CA000DDE90F23AAEB08008146214600F036F952
:101CB000304400EB080604E0DDE90F121BF8010BCD
:101CC0009047B8F10108F7D221464846F7E00A21CB
:101CD000C4F302534FF0000B0891022B04D001CF44
:101CE000C117032B09D00AE0FF1D27F00707F7E80B
:101CF000020108E032E01FE020E000B2C117042B2F
:101D000001D140B2C117031E71F1000307DA4FF091
:101D1000000CD0EB0C006CEB01012D2302E023053D
:101D200004D52B238DF82430012303E0E30701D0F1
:101D30002023F7E7984658E00A2110E010210EE032
:101D400010204FF0000B08900CE010214FF0000B1A
:101D500044F004044FF00809089103E008214FF013
:101D6000000B0891C4F30253022B04D001CF0021D1
:101D7000032B06D006E0FF1D27F00707F7E8020156
:101D800003E080B2042B00D1C0B24FF0000823075B
:101D90002BD5702A07D0DDF820C08CF0100C5CEA3F
:101DA0000B0C05D00EE040238DF82430012308E011
:101DB00050EA010306D030238DF824308DF8252019
:101DC00002239846DDF820C08CF0080C5CEA0B0C6E
:101DD0000BD150EA010301D1630706D530238DF8FA
:101DE00024304FF00108A9F10109582A04D038A283
:101DF0000B9208AA0A920BE03AA2F9E75B46089A0E
:101E0000FEF7B9F90B9B9B5C0A9A521E0A9213705B
:101E100050EA0102F2D10A98ADEB000000F1200B6C
:101E2000600702D524F4803401E04FF00109D94560
:101E300002DDA9EB0B0000E0002000EB0B014144A8
:101E40000890AAEB010AE00306D4DDE90F2321463E
:101E5000504600F063F806444FF0000908E009A975
:101E600011F80900DDE90F12904709F10109761C0C
:101E7000C145F4DBE0030CD5DDE90F2321465046D4
:101E800000F04CF8064404E0DDE90F1230209047E2
:101E9000761C0899481E08900029F5DC08E00A988D
:101EA0000A990078491C0A91DDE90F129047761CC7
:101EB000BBF10001ABF1010BF1DC21465046DDE93D
:101EC0000F2300F019F806446D1C1BE609280100D9
:101ED00030313233343536373839616263646566A0
:101EE0000000000030313233343536373839414262
:101EF00043444546000000002DE9F041044600251A
:101F00001E461746880404D405E039462020B04711
:101F10006D1C641EF9D52846BDE8F0812DE9F0411D
:101F2000044600251E469046C80301D5302700E030
:101F30002027880404D505E041463846B0476D1C8B
:101F4000641EF9D52846BDE8F0810A68531C0B6071
:101F500010707047ACB0FEF755FAFFF75DFCFFF765
:101F60001DF9FFF74FF9464C44480C2120604FF40F
:101F7000E13060600020A060E060C4E90401A0617D
:101F8000E0612046FFF74FF800B1FEE726223C490A
:101F90000CA8FEF7D7F8E08CADF85600384828308A
:101FA000016816918088ADF85C00E08DADF85E00A8
:101FB00033490922303118A8FEF7C4F894F83900E3
:101FC0008DF8690094F83A008DF86A00E06B1B9078
:101FD000302210A96846FEF7B5F80DF1300C9CE8E8
:101FE0000F0000F053F826493622583915A8FEF79D
:101FF000A9F8234C583CE08EADF88A00A06B2390E2
:10200000A08FADF89000E08FADF89200112204F19E
:10201000400125A8FEF796F894F851008DF8A50028
:10202000606D2A90542216A96846FEF78BF80222AA
:1020300004211448159BFFF73FF9FFF70FFA1248E8
:10204000D0E900230120FFF735FAFFF721FB983490
:102050005FF00A05FFF71CF90028FBD00848202193
:102060004030FFF757FA064984F820500A2321220E
:1020700040310348FFF734F8ECE700000038014036
:102080008000002000080140000000200FB4402222
:1020900010B502A90248FEF755F810BC5DF814FB14
:1020A0004C01002010B5A0B0F5A104A8FFF7F8FC82
:1020B00004A8FEF759F882B20A2304A9FD48FFF7E5
:1020C0000FF80020FFF748FA01077BD5400701D53C
:1020D000F9A100E0FEA104A8FFF7E2FC04A8FEF7C6
:1020E00043F882B20A2304A9F248FEF7F9FF01205F
:1020F000FFF732FAC0F34014C0F30013C0F3C0027C
:10210000C0F380018DE81E0000F00102C0F340031F
:10211000F5A104A8FFF7C4FC04A8FEF725F882B2D5
:102120000A2304A9E348FEF7DBFF0220FFF714FAB5
:10213000C0F34014C0F30013C0F3C002C0F3800129
:102140008DE81E0000F00102C0F34003F5A104A8D1
:10215000FFF7A6FC04A8FEF707F882B20A2304A939
:10216000D448FEF7BDFF0320FFF7F6F900F00302A5
:10217000FCA104A8921CFFF793FC04A8FDF7F4FF50
:1021800082B20A2304A9CB48FEF7AAFF0520FFF775
:10219000E3F900F07F02F9A104A8FFF781FC04A88D
:1021A000FDF7E2FF82B20A2304A9C248FEF798FFB6
:1021B0000620FFF7D1F90446000705D500E001E04D
:1021C000F2A102E0F6A186E7F9A104A8FFF768FCF6
:1021D00004A8FDF7C9FF82B20A2304A9B548FEF797
:1021E0007FFF032010EA540006D0012808D00228FF
:1021F0000AD0032810D10BE0F2A104A8FFF750FC8D
:10220000F4A104A8FFF74CFCF6A104A8FFF748FCD2
:10221000F8A104A8FFF744FCFAA104A8FFF740FCCA
:1022200004A8FDF7A1FF82B20A2304A9A148FEF782
:1022300057FF05221DA90A20FFF7AEF99DF8760089
:102240009DF874209DF875108DE807009DF8773093
:102250009DF87820EDA104A8FFF722FC04A8FDF763
:1022600083FF82B20A2304A99248FEF739FF0522B0
:102270001DA90B20FFF790F99DF876009DF87420BA
:102280009DF875108DE807009DF877309DF878204F
:10229000E9A104A8FFF704FC04A8FDF765FF82B2DA
:1022A0000A2304A98348FEF71BFF01221DA90C2065
:1022B000FFF772F99DF87420EAA104A8FFF7F0FB7C
:1022C00004A8FDF751FF82B20A2304A97948FEF75A
:1022D00007FF01221DA90D20FFF75EF99DF874206C
:1022E000E6A104A8FFF7DCFB04A8FDF73DFF82B2DE
:1022F0000A2304A96F48FEF7F3FE01221DA90E2050
:10230000FFF74AF99DF87420E2A104A8FFF7C8FB83
:1023100004A8FDF729FF82B20A2304A96548FEF745
:10232000DFFE01221DA90F20FFF736F99DF874206A
:10233000DEA104A8FFF7B4FB04A8FDF715FF82B2E5
:102340000A2304A95B48FEF7CBFE05221DA9102035
:10235000FFF722F99DF876009DF874209DF875101E
:102360008DE807009DF877309DF87820D5A104A866
:10237000FFF796FB04A8FDF7F7FE82B20A2304A933
:102380004C48FEF7ADFE1120FFF7E6F800F03F02E3
:10239000D6A104A8FFF784FB04A8FDF7E5FE82B2EE
:1023A0000A2304A94348FEF79BFE1220FFF7D4F846
:1023B00000F03F02D3A104A8FFF772FB04A8FDF7C9
:1023C000D3FE82B20A2304A93A48FEF789FE1320FD
:1023D000FFF7C2F800F03F02D0A104A8FFF760FBAE
:1023E00004A8FDF7C1FE82B20A2304A93148FEF712
:1023F00077FE1420FFF7B0F800F03F02CDA104A84B
:10240000FFF74EFB04A8FDF7AFFE82B20A2304A932
:102410002848FEF765FE1520FFF79EF800F03F0202
:10242000CAA104A8FFF73CFB04A8FDF79DFE82B2F9
:102430000A2304A91F48FEF753FE1620FFF78CF865
:1024400000F03F02C7A104A8FFF72AFB04A8FDF78C
:102450008BFE82B20A2304A91648FEF741FE1C2017
:10246000FFF77AF8C0F34014C0F30013C0F3C002C2
:10247000C0F380018DE81E0000F001027EE1000043
:102480000A2A2A2A2A2A2A2A2A2A2A2A2A2A2A2ACC
:102490002A2A2A2A2A2A2A2A2A2A2A2A2A2A2A2A9C
:1024A0002A2A2A2A2A2A2A2A2A2A2A2A2A2A2A0AAC
:1024B000000000004C0100204352433A20456E6169
:1024C000626C65642C2032204279746573200A00A6
:1024D0004352433A20456E61626C65642C20312082
:1024E00042797465200A0000454E41413A09503056
:1024F0003A0925640A090950313A0925640A09098B
:1025000050323A0925640A090950333A0925640A08
:10251000090950343A0925640A090950353A092550
:10252000640A0000454E5F5258414444523A2050DC
:10253000303A0925640A090950313A0925640A0923
:102540000950323A0925640A090950333A092564C9
:102550000A090950343A0925640A090950353A092B
:1025600025640A0053455455505F41573A2025646D
:10257000206279746573200A0000000052465F43B0
:10258000483A202564204348200A000044617461D1
:1025900020526174653A20324D627073200A000047
:1025A0004352433A2044697361626C6564200A00B7
:1025B0004461746120526174653A20314D627073D8
:1025C000200A000052465F5057523A202D3138649D
:1025D00042200A0052465F5057523A202D31326451
:1025E00042200A0052465F5057523A202D3664422C
:1025F000200A000052465F5057523A202030644271
:10260000200A00004572726F7200000052585F503D
:10261000697065302041646472733A202530325805
:102620002C253032582C253032582C253032582C5D
:102630002530325820200A0052585F5069706531A9
:102640002041646472733A20253032582C25303290
:10265000582C253032582C253032582C2530325801
:1026600020200A0052585F5069706532204164642E
:1026700072733A202530325820200A0052585F5099
:10268000697065332041646472733A202530325892
:1026900020200A0052585F506970653420416464FC
:1026A00072733A202530325820200A0052585F5069
:1026B000697065352041646472733A202530325860
:1026C00020200A0054582041646472733A20253057
:1026D00032582C253032582C253032582C253032A7
:1026E000582C2530325820200A00000052585F50E4
:1026F000575F50303A202564206279746573200A50
:102700000000000052585F50575F50313A20256456
:10271000206279746573200A0000000052585F50EF
:10272000575F50323A202564206279746573200A1D
:102730000000000052585F50575F50333A20256424
:10274000206279746573200A0000000052585F50BF
:10275000575F50343A202564206279746573200AEB
:102760000000000052585F50575F50353A202564F2
:10277000206279746573200A00000000C0F34003F2
:10278000184904A8FFF78CF904A8FDF7EDFC82B204
:102790000A2304A91448FEF7A3FC1D20FEF7DCFE63
:1027A000400701D511A100E015A104A8FFF778F9B1
:1027B00004A8FDF7D9FC82B20A2304A90A48FEF74F
:1027C0008FFCAFF2443104A8FFF76AF904A8FDF7C3
:1027D000CBFC82B20A2304A90348FEF781FC20B097
:1027E00010BD00003C2800084C010020454E5F440D
:1027F000504C3A20456E61626C6564200A0000000E
:10280000454E5F44504C3A2044697361626C656484
:10281000200A000000000000000000000102030484
:102820000607080900000000010203041112131436
:1028300015160A0B0C0D0E0F1000000044594E50D7
:10284000445F706970653A2050303A0925640A097E
:102850000950313A0925640A090950323A092564B8
:102860000A090950333A0925640A090950343A091A
:1028700025640A090950353A0925640A0000000058
:10288000A02800080000002028000000C81A000846
:10289000C82800082800002068050000D81A000891
:1028A000AA443322110000000100000010000000C3
:1028B0000000000000A24A04000000000000000028
:0828C000000000000000000010
:04000005080000ED02
:00000001FF
